:100000000C943E000C9448000C9448000C9448005A
:100010000C9448000C9448000C9448000C94480040
:100020000C9448000C9448000C9448000C94480030
:100030000C9448000C9448000C9448000C94480020
:100040000C9448000C9448000C9448000C94480010
:100050000C9448000C9448000C9448000C94480000
:100060000C9448000C9448000C9448000C944800F0
:100070000C9448000C9448000C94480011241FBEB6
:10008000CFEFD8E0DEBFCDBF0E944A000C947500D0
:100090000C9400008FEF81B922E031E022B94FEFDC
:1000A00089E698E1415080409040E1F700C00000AF
:1000B00032B9EFEFF9E648E1E150F0404040E1F7B6
:1000C00000C0000082E390E022B9EFE1FEE4319746
:1000D000F1F700C0000032B9EFE1FEE43197F1F72B
:0E00E00000C00000019781F7D9CFF894FFCF40
:00000001FF
