:100000000C943E000C9448000C9448000C9448005A
:100010000C9448000C9448000C9448000C94480040
:100020000C9448000C9448000C9448000C94480030
:100030000C9448000C9448000C9448000C94480020
:100040000C9448000C9448000C9448000C94480010
:100050000C9448000C9448000C9448000C94480000
:100060000C9448000C9448000C9448000C944800F0
:100070000C9448000C9448000C94480011241FBEB6
:10008000CFEFD8E0DEBFCDBF0E944A000C949E00A7
:100090000C9400008FEF81B990E080E021E032E025
:1000A0004A9BFECFEFE1FEE43197F1F700C000007C
:1000B0004A9BF6CF009761F422B9FFEF41EE84E04E
:1000C000F15040408040E1F700C0000081E034C0C2
:1000D0008130910561F432B99FEFE1EEF4E0915087
:1000E000E040F040E1F700C0000082E025C082302F
:1000F0009105B1F64FEF81EE94E041508040904081
:10010000E1F700C0000022B98FE19EE40197F1F70A
:1001100000C0000032B9EFE1FEE43197F1F700C012
:1001200000004A9BF0CFEFE1FEE43197F1F700C009
:1001300000004A9BE8CF80E090E0B2CFF894FFCF78
:00000001FF
