:100000000C943E000C9450000C9450000C94500042
:100010000C9450000C9450000C9450000C94500020
:100020000C9450000C9450000C9450000C94500010
:100030000C9450000C9450000C9450000C94500000
:100040000C9450000C9450000C9450000C945000F0
:100050000C9450000C9450000C9450000C945000E0
:100060000C9450000C9450000C9450000C945000D0
:100070000C9450000C9450000C94500011241FBE9E
:10008000CFEFD8E0DEBFCDBF21E0A0E0B1E001C0FE
:100090001D92A130B207E1F70E9474000C949D00FC
:1000A0000C940000FC01808191818130910551F018
:1000B0008230910551F0892BB1F481E090E0918379
:1000C0008083089582E090E0FACF82E082B92FEF3A
:1000D00083ED90E3215080409040E1F700C00000A4
:1000E00012B811821082089500D0CDB7DEB78FEF1D
:1000F00081B91A82198211E04A9B1AC08FE19EE4ED
:100100000197F1F700C000004A9B12C01093000154
:100110004A99F2CF8FE19EE40197F1F700C0000009
:1001200089B110920001CE0101960E945200E4CFE5
:0E01300080910001882301F3EBCFF894FFCFFC
:00000001FF
